{
  "address": "0x59c9591c537ac8a082dcca0d3ee9fddef6e7b925",
  "abi": [
    {
      "inputs": [
        {
          "internalType": "address[]",
          "name": "_owners",
          "type": "address[]"
        },
        {
          "internalType": "uint256",
          "name": "_confirmationsRequired",
          "type": "uint256"
        }
      ],
      "stateMutability": "nonpayable",
      "type": "constructor"
    },
    {
      "inputs": [
        {
          "internalType": "uint256",
          "name": "txId",
          "type": "uint256"
        }
      ],
      "name": "MultiSig__AlreadyConfirmed",
      "type": "error"
    },
    {
      "inputs": [
        {
          "internalType": "address",
          "name": "duplicateAddr",
          "type": "address"
        }
      ],
      "name": "MultiSig__DuplicateAddress",
      "type": "error"
    },
    {
      "inputs": [],
      "name": "MultiSig__InsufficientAmount",
      "type": "error"
    },
    {
      "inputs": [
        {
          "internalType": "uint256",
          "name": "userBalance",
          "type": "uint256"
        },
        {
          "internalType": "uint256",
          "name": "value",
          "type": "uint256"
        }
      ],
      "name": "MultiSig__InsufficientBalance",
      "type": "error"
    },
    {
      "inputs": [],
      "name": "MultiSig__InvalidAddress",
      "type": "error"
    },
    {
      "inputs": [
        {
          "internalType": "uint256",
          "name": "txId",
          "type": "uint256"
        }
      ],
      "name": "MultiSig__InvalidTransactionId",
      "type": "error"
    },
    {
      "inputs": [
        {
          "internalType": "uint256",
          "name": "sharedFunds",
          "type": "uint256"
        },
        {
          "internalType": "uint256",
          "name": "txValue",
          "type": "uint256"
        }
      ],
      "name": "MultiSig__NeedMoreSharedFunds",
      "type": "error"
    },
    {
      "inputs": [
        {
          "internalType": "uint256",
          "name": "confirmations",
          "type": "uint256"
        },
        {
          "internalType": "uint256",
          "name": "confirmationsNeeded",
          "type": "uint256"
        }
      ],
      "name": "MultiSig__NeedsMoreConfirmations",
      "type": "error"
    },
    {
      "inputs": [],
      "name": "MultiSig__OnlyOwner",
      "type": "error"
    },
    {
      "inputs": [
        {
          "internalType": "uint256",
          "name": "txId",
          "type": "uint256"
        }
      ],
      "name": "MultiSig__TransactionAlreadyExecuted",
      "type": "error"
    },
    {
      "inputs": [
        {
          "internalType": "uint256",
          "name": "txId",
          "type": "uint256"
        }
      ],
      "name": "MultiSig__TransactionExecutionFailed",
      "type": "error"
    },
    {
      "inputs": [
        {
          "internalType": "uint256",
          "name": "txId",
          "type": "uint256"
        }
      ],
      "name": "MultiSig__TxNotConfirmed",
      "type": "error"
    },
    {
      "inputs": [],
      "name": "MultiSig__WithdrawFailed",
      "type": "error"
    },
    {
      "anonymous": false,
      "inputs": [
        {
          "indexed": true,
          "internalType": "address",
          "name": "depositor",
          "type": "address"
        },
        {
          "indexed": true,
          "internalType": "uint256",
          "name": "depositId",
          "type": "uint256"
        },
        {
          "indexed": true,
          "internalType": "uint256",
          "name": "value",
          "type": "uint256"
        }
      ],
      "name": "DepositSubmitted",
      "type": "event"
    },
    {
      "anonymous": false,
      "inputs": [
        {
          "indexed": true,
          "internalType": "address",
          "name": "owner",
          "type": "address"
        }
      ],
      "name": "OwnerAdded",
      "type": "event"
    },
    {
      "anonymous": false,
      "inputs": [
        {
          "indexed": true,
          "internalType": "address",
          "name": "proposer",
          "type": "address"
        },
        {
          "indexed": false,
          "internalType": "address",
          "name": "to",
          "type": "address"
        },
        {
          "indexed": true,
          "internalType": "uint256",
          "name": "transactionId",
          "type": "uint256"
        },
        {
          "indexed": true,
          "internalType": "uint256",
          "name": "value",
          "type": "uint256"
        }
      ],
      "name": "TransactionProposed",
      "type": "event"
    },
    {
      "inputs": [
        {
          "internalType": "uint256",
          "name": "value",
          "type": "uint256"
        }
      ],
      "name": "addSharedFunds",
      "outputs": [],
      "stateMutability": "nonpayable",
      "type": "function"
    },
    {
      "inputs": [
        {
          "internalType": "address",
          "name": "",
          "type": "address"
        },
        {
          "internalType": "uint256",
          "name": "",
          "type": "uint256"
        }
      ],
      "name": "addressToDepositArray",
      "outputs": [
        {
          "internalType": "address",
          "name": "depositor",
          "type": "address"
        },
        {
          "internalType": "uint256",
          "name": "depositId",
          "type": "uint256"
        },
        {
          "internalType": "uint256",
          "name": "value",
          "type": "uint256"
        }
      ],
      "stateMutability": "view",
      "type": "function"
    },
    {
      "inputs": [
        {
          "internalType": "address",
          "name": "",
          "type": "address"
        },
        {
          "internalType": "uint256",
          "name": "",
          "type": "uint256"
        }
      ],
      "name": "addressToTxArray",
      "outputs": [
        {
          "internalType": "address",
          "name": "proposer",
          "type": "address"
        },
        {
          "internalType": "address",
          "name": "to",
          "type": "address"
        },
        {
          "internalType": "bool",
          "name": "executed",
          "type": "bool"
        },
        {
          "internalType": "bytes",
          "name": "data",
          "type": "bytes"
        },
        {
          "internalType": "uint256",
          "name": "transactionId",
          "type": "uint256"
        },
        {
          "internalType": "uint256",
          "name": "value",
          "type": "uint256"
        },
        {
          "internalType": "uint256",
          "name": "confirmations",
          "type": "uint256"
        }
      ],
      "stateMutability": "view",
      "type": "function"
    },
    {
      "inputs": [
        {
          "internalType": "address",
          "name": "",
          "type": "address"
        }
      ],
      "name": "balances",
      "outputs": [
        {
          "internalType": "uint256",
          "name": "",
          "type": "uint256"
        }
      ],
      "stateMutability": "view",
      "type": "function"
    },
    {
      "inputs": [
        {
          "internalType": "uint256",
          "name": "_txId",
          "type": "uint256"
        }
      ],
      "name": "confirmTransaction",
      "outputs": [],
      "stateMutability": "nonpayable",
      "type": "function"
    },
    {
      "inputs": [
        {
          "internalType": "uint256",
          "name": "",
          "type": "uint256"
        }
      ],
      "name": "depositArray",
      "outputs": [
        {
          "internalType": "address",
          "name": "depositor",
          "type": "address"
        },
        {
          "internalType": "uint256",
          "name": "depositId",
          "type": "uint256"
        },
        {
          "internalType": "uint256",
          "name": "value",
          "type": "uint256"
        }
      ],
      "stateMutability": "view",
      "type": "function"
    },
    {
      "inputs": [
        {
          "internalType": "uint256",
          "name": "_txId",
          "type": "uint256"
        }
      ],
      "name": "executeTransaction",
      "outputs": [],
      "stateMutability": "nonpayable",
      "type": "function"
    },
    {
      "inputs": [],
      "name": "getBalance",
      "outputs": [
        {
          "internalType": "uint256",
          "name": "",
          "type": "uint256"
        }
      ],
      "stateMutability": "view",
      "type": "function"
    },
    {
      "inputs": [
        {
          "internalType": "address",
          "name": "",
          "type": "address"
        },
        {
          "internalType": "uint256",
          "name": "",
          "type": "uint256"
        }
      ],
      "name": "hasConfirmed",
      "outputs": [
        {
          "internalType": "bool",
          "name": "",
          "type": "bool"
        }
      ],
      "stateMutability": "view",
      "type": "function"
    },
    {
      "inputs": [
        {
          "internalType": "address",
          "name": "",
          "type": "address"
        }
      ],
      "name": "isOwner",
      "outputs": [
        {
          "internalType": "bool",
          "name": "",
          "type": "bool"
        }
      ],
      "stateMutability": "view",
      "type": "function"
    },
    {
      "inputs": [
        {
          "internalType": "uint256",
          "name": "",
          "type": "uint256"
        }
      ],
      "name": "nonOwnerDepositArray",
      "outputs": [
        {
          "internalType": "address",
          "name": "depositor",
          "type": "address"
        },
        {
          "internalType": "uint256",
          "name": "depositId",
          "type": "uint256"
        },
        {
          "internalType": "uint256",
          "name": "value",
          "type": "uint256"
        }
      ],
      "stateMutability": "view",
      "type": "function"
    },
    {
      "inputs": [
        {
          "internalType": "uint256",
          "name": "",
          "type": "uint256"
        }
      ],
      "name": "owners",
      "outputs": [
        {
          "internalType": "address",
          "name": "",
          "type": "address"
        }
      ],
      "stateMutability": "view",
      "type": "function"
    },
    {
      "inputs": [
        {
          "internalType": "address payable",
          "name": "_to",
          "type": "address"
        },
        {
          "internalType": "uint256",
          "name": "_amount",
          "type": "uint256"
        },
        {
          "internalType": "bytes",
          "name": "_data",
          "type": "bytes"
        }
      ],
      "name": "proposeTransaction",
      "outputs": [],
      "stateMutability": "nonpayable",
      "type": "function"
    },
    {
      "inputs": [
        {
          "internalType": "uint256",
          "name": "_txId",
          "type": "uint256"
        }
      ],
      "name": "revokeConfirmation",
      "outputs": [],
      "stateMutability": "nonpayable",
      "type": "function"
    },
    {
      "inputs": [],
      "name": "s_confirmationsRequired",
      "outputs": [
        {
          "internalType": "uint256",
          "name": "",
          "type": "uint256"
        }
      ],
      "stateMutability": "view",
      "type": "function"
    },
    {
      "inputs": [],
      "name": "s_depositCounter",
      "outputs": [
        {
          "internalType": "uint256",
          "name": "",
          "type": "uint256"
        }
      ],
      "stateMutability": "view",
      "type": "function"
    },
    {
      "inputs": [],
      "name": "s_sharedFunds",
      "outputs": [
        {
          "internalType": "uint256",
          "name": "",
          "type": "uint256"
        }
      ],
      "stateMutability": "view",
      "type": "function"
    },
    {
      "inputs": [],
      "name": "s_transactionCounter",
      "outputs": [
        {
          "internalType": "uint256",
          "name": "",
          "type": "uint256"
        }
      ],
      "stateMutability": "view",
      "type": "function"
    },
    {
      "inputs": [],
      "name": "submitDeposit",
      "outputs": [],
      "stateMutability": "payable",
      "type": "function"
    },
    {
      "inputs": [
        {
          "internalType": "uint256",
          "name": "",
          "type": "uint256"
        }
      ],
      "name": "transactionArray",
      "outputs": [
        {
          "internalType": "address",
          "name": "proposer",
          "type": "address"
        },
        {
          "internalType": "address",
          "name": "to",
          "type": "address"
        },
        {
          "internalType": "bool",
          "name": "executed",
          "type": "bool"
        },
        {
          "internalType": "bytes",
          "name": "data",
          "type": "bytes"
        },
        {
          "internalType": "uint256",
          "name": "transactionId",
          "type": "uint256"
        },
        {
          "internalType": "uint256",
          "name": "value",
          "type": "uint256"
        },
        {
          "internalType": "uint256",
          "name": "confirmations",
          "type": "uint256"
        }
      ],
      "stateMutability": "view",
      "type": "function"
    },
    {
      "inputs": [
        {
          "internalType": "uint256",
          "name": "amount",
          "type": "uint256"
        }
      ],
      "name": "withdraw",
      "outputs": [],
      "stateMutability": "nonpayable",
      "type": "function"
    },
    {
      "stateMutability": "payable",
      "type": "receive"
    }
  ],
  "transactionHash": "0x7c403a009aa8a7d3f0b638de06eb2b4780f9374b8b0b4c77ebee0c71d15476d4",
  "args": [
    [
      "0xe4a98d2bfd66ce08128fdfffc9070662e489a28e",
      "0xac3d5989f52890fd15d5f3108601884e649d7b2b",
      "0x8423cc45c78ad4b0911ee3b6f03204ac9d6a57fb"
    ],
    3
  ],
  "numDeployments": 2,
  "solcInputHash": "386d9d97cf743d917ecb40d183d50673",
  "bytecode": "0x60806040523480156200001157600080fd5b5060405162002c9038038062002c908339818101604052810190620000379190620004c3565b60005b82518110156200027a5760008382815181106200005c576200005b62000529565b5b60200260200101519050600073ffffffffffffffffffffffffffffffffffffffff168173ffffffffffffffffffffffffffffffffffffffff161415620000ce576040517fe7b8efaf00000000000000000000000000000000000000000000000000000000815260040160405180910390fd5b600a60008273ffffffffffffffffffffffffffffffffffffffff1673ffffffffffffffffffffffffffffffffffffffff16815260200190815260200160002060009054906101000a900460ff1662000224576000819080600181540180825580915050600190039060005260206000200160009091909190916101000a81548173ffffffffffffffffffffffffffffffffffffffff021916908373ffffffffffffffffffffffffffffffffffffffff1602179055506001600a60008373ffffffffffffffffffffffffffffffffffffffff1673ffffffffffffffffffffffffffffffffffffffff16815260200190815260200160002060006101000a81548160ff0219169083151502179055508073ffffffffffffffffffffffffffffffffffffffff167f994a936646fe87ffe4f1e469d3d6aa417d6b855598397f323de5b449f765f0c360405160405180910390a262000263565b806040517fc227b0440000000000000000000000000000000000000000000000000000000081526004016200025a919062000569565b60405180910390fd5b5080806200027190620005b5565b9150506200003a565b508060018190555060006002819055506000600381905550505062000603565b6000604051905090565b600080fd5b600080fd5b600080fd5b6000601f19601f8301169050919050565b7f4e487b7100000000000000000000000000000000000000000000000000000000600052604160045260246000fd5b620002fe82620002b3565b810181811067ffffffffffffffff8211171562000320576200031f620002c4565b5b80604052505050565b6000620003356200029a565b9050620003438282620002f3565b919050565b600067ffffffffffffffff821115620003665762000365620002c4565b5b602082029050602081019050919050565b600080fd5b600073ffffffffffffffffffffffffffffffffffffffff82169050919050565b6000620003a9826200037c565b9050919050565b620003bb816200039c565b8114620003c757600080fd5b50565b600081519050620003db81620003b0565b92915050565b6000620003f8620003f28462000348565b62000329565b905080838252602082019050602084028301858111156200041e576200041d62000377565b5b835b818110156200044b5780620004368882620003ca565b84526020840193505060208101905062000420565b5050509392505050565b600082601f8301126200046d576200046c620002ae565b5b81516200047f848260208601620003e1565b91505092915050565b6000819050919050565b6200049d8162000488565b8114620004a957600080fd5b50565b600081519050620004bd8162000492565b92915050565b60008060408385031215620004dd57620004dc620002a4565b5b600083015167ffffffffffffffff811115620004fe57620004fd620002a9565b5b6200050c8582860162000455565b92505060206200051f85828601620004ac565b9150509250929050565b7f4e487b7100000000000000000000000000000000000000000000000000000000600052603260045260246000fd5b62000563816200039c565b82525050565b600060208201905062000580600083018462000558565b92915050565b7f4e487b7100000000000000000000000000000000000000000000000000000000600052601160045260246000fd5b6000620005c28262000488565b91507fffffffffffffffffffffffffffffffffffffffffffffffffffffffffffffffff821415620005f857620005f762000586565b5b600182019050919050565b61267d80620006136000396000f3fe60806040526004361061012e5760003560e01c80635e90852d116100ab578063c0a9af8a1161006f578063c0a9af8a14610441578063c82ef8fb14610484578063e9843a3e146104c7578063ea7c527b146104d1578063ee22610b146104fc578063fd97af63146105255761013d565b80635e90852d1461034857806379f90c6d14610371578063b6223838146103ae578063bc5badba146103d9578063c01a8c84146104185761013d565b806327760918116100f2578063277609181461022757806327e235e3146102665780632b61720b146102a35780632e1a7d4d146102e25780632f54bf6e1461030b5761013d565b806301ebdbed14610142578063025e7c271461016d57806312065fe0146101aa57806317a248d7146101d557806320ea8d86146101fe5761013d565b3661013d5761013b610550565b005b600080fd5b34801561014e57600080fd5b506101576108c9565b6040516101649190611e46565b60405180910390f35b34801561017957600080fd5b50610194600480360381019061018f9190611ea1565b6108cf565b6040516101a19190611f0f565b60405180910390f35b3480156101b657600080fd5b506101bf61090e565b6040516101cc9190611e46565b60405180910390f35b3480156101e157600080fd5b506101fc60048036038101906101f79190611ea1565b610916565b005b34801561020a57600080fd5b5061022560048036038101906102209190611ea1565b610ad8565b005b34801561023357600080fd5b5061024e60048036038101906102499190611ea1565b610d7c565b60405161025d93929190611f2a565b60405180910390f35b34801561027257600080fd5b5061028d60048036038101906102889190611f8d565b610dd6565b60405161029a9190611e46565b60405180910390f35b3480156102af57600080fd5b506102ca60048036038101906102c59190611ea1565b610dee565b6040516102d993929190611f2a565b60405180910390f35b3480156102ee57600080fd5b5061030960048036038101906103049190611ea1565b610e48565b005b34801561031757600080fd5b50610332600480360381019061032d9190611f8d565b611095565b60405161033f9190611fd5565b60405180910390f35b34801561035457600080fd5b5061036f600480360381019061036a9190612174565b6110b5565b005b34801561037d57600080fd5b50610398600480360381019061039391906121e3565b611484565b6040516103a59190611fd5565b60405180910390f35b3480156103ba57600080fd5b506103c36114b3565b6040516103d09190611e46565b60405180910390f35b3480156103e557600080fd5b5061040060048036038101906103fb91906121e3565b6114b9565b60405161040f93929190611f2a565b60405180910390f35b34801561042457600080fd5b5061043f600480360381019061043a9190611ea1565b611520565b005b34801561044d57600080fd5b50610468600480360381019061046391906121e3565b6117c4565b60405161047b97969594939291906122ab565b60405180910390f35b34801561049057600080fd5b506104ab60048036038101906104a69190611ea1565b6118f8565b6040516104be97969594939291906122ab565b60405180910390f35b6104cf610550565b005b3480156104dd57600080fd5b506104e6611a1f565b6040516104f39190611e46565b60405180910390f35b34801561050857600080fd5b50610523600480360381019061051e9190611ea1565b611a25565b005b34801561053157600080fd5b5061053a611d84565b6040516105479190611e46565b60405180910390f35b6000341161058a576040517fd8baabf300000000000000000000000000000000000000000000000000000000815260040160405180910390fd5b600060405180606001604052803373ffffffffffffffffffffffffffffffffffffffff1681526020016003548152602001348152509050600681908060018154018082558091505060019003906000526020600020906003020160009091909190915060008201518160000160006101000a81548173ffffffffffffffffffffffffffffffffffffffff021916908373ffffffffffffffffffffffffffffffffffffffff1602179055506020820151816001015560408201518160020155505060011515600a60003373ffffffffffffffffffffffffffffffffffffffff1673ffffffffffffffffffffffffffffffffffffffff16815260200190815260200160002060009054906101000a900460ff16151514156107c45734600860003373ffffffffffffffffffffffffffffffffffffffff1673ffffffffffffffffffffffffffffffffffffffff16815260200190815260200160002060008282546106f29190612350565b92505081905550600c60003373ffffffffffffffffffffffffffffffffffffffff1673ffffffffffffffffffffffffffffffffffffffff16815260200190815260200160002081908060018154018082558091505060019003906000526020600020906003020160009091909190915060008201518160000160006101000a81548173ffffffffffffffffffffffffffffffffffffffff021916908373ffffffffffffffffffffffffffffffffffffffff16021790555060208201518160010155604082015181600201555050610867565b600781908060018154018082558091505060019003906000526020600020906003020160009091909190915060008201518160000160006101000a81548173ffffffffffffffffffffffffffffffffffffffff021916908373ffffffffffffffffffffffffffffffffffffffff16021790555060208201518160010155604082015181600201555050346004600082825461085f9190612350565b925050819055505b346003543373ffffffffffffffffffffffffffffffffffffffff167f60632bec6675ecd62662a334e8b7662ea8334ebc4b4eaa7b09c33ddd7049a00260405160405180910390a4600360008154809291906108c1906123a6565b919050555050565b60025481565b600081815481106108df57600080fd5b906000526020600020016000915054906101000a900473ffffffffffffffffffffffffffffffffffffffff1681565b600047905090565b60001515600a60003373ffffffffffffffffffffffffffffffffffffffff1673ffffffffffffffffffffffffffffffffffffffff16815260200190815260200160002060009054906101000a900460ff16151514156109a1576040517f4523e4c700000000000000000000000000000000000000000000000000000000815260040160405180910390fd5b80600860003373ffffffffffffffffffffffffffffffffffffffff1673ffffffffffffffffffffffffffffffffffffffff168152602001908152602001600020541015610a6657600860003373ffffffffffffffffffffffffffffffffffffffff1673ffffffffffffffffffffffffffffffffffffffff16815260200190815260200160002054816040517f20ad43f4000000000000000000000000000000000000000000000000000000008152600401610a5d9291906123ef565b60405180910390fd5b80600860003373ffffffffffffffffffffffffffffffffffffffff1673ffffffffffffffffffffffffffffffffffffffff1681526020019081526020016000206000828254610ab59190612418565b925050819055508060046000828254610ace9190612350565b9250508190555050565b60001515600a60003373ffffffffffffffffffffffffffffffffffffffff1673ffffffffffffffffffffffffffffffffffffffff16815260200190815260200160002060009054906101000a900460ff1615151415610b63576040517f4523e4c700000000000000000000000000000000000000000000000000000000815260040160405180910390fd5b806005805490508110610bad57806040517fcec0dec2000000000000000000000000000000000000000000000000000000008152600401610ba49190611e46565b60405180910390fd5b816001151560058281548110610bc657610bc561244c565b5b906000526020600020906006020160010160149054906101000a900460ff1615151415610c2a57806040517f12c8b3fc000000000000000000000000000000000000000000000000000000008152600401610c219190611e46565b60405180910390fd5b60001515600960003373ffffffffffffffffffffffffffffffffffffffff1673ffffffffffffffffffffffffffffffffffffffff168152602001908152602001600020600085815260200190815260200160002060009054906101000a900460ff1615151415610cd157826040517fbcaa3658000000000000000000000000000000000000000000000000000000008152600401610cc89190611e46565b60405180910390fd5b6000600960003373ffffffffffffffffffffffffffffffffffffffff1673ffffffffffffffffffffffffffffffffffffffff168152602001908152602001600020600085815260200190815260200160002060006101000a81548160ff021916908315150217905550600160058481548110610d5057610d4f61244c565b5b90600052602060002090600602016005016000828254610d709190612418565b92505081905550505050565b60068181548110610d8c57600080fd5b90600052602060002090600302016000915090508060000160009054906101000a900473ffffffffffffffffffffffffffffffffffffffff16908060010154908060020154905083565b60086020528060005260406000206000915090505481565b60078181548110610dfe57600080fd5b90600052602060002090600302016000915090508060000160009054906101000a900473ffffffffffffffffffffffffffffffffffffffff16908060010154908060020154905083565b60001515600a60003373ffffffffffffffffffffffffffffffffffffffff1673ffffffffffffffffffffffffffffffffffffffff16815260200190815260200160002060009054906101000a900460ff1615151415610ed3576040517f4523e4c700000000000000000000000000000000000000000000000000000000815260040160405180910390fd5b80600860003373ffffffffffffffffffffffffffffffffffffffff1673ffffffffffffffffffffffffffffffffffffffff168152602001908152602001600020541015610f9857600860003373ffffffffffffffffffffffffffffffffffffffff1673ffffffffffffffffffffffffffffffffffffffff16815260200190815260200160002054816040517f20ad43f4000000000000000000000000000000000000000000000000000000008152600401610f8f9291906123ef565b60405180910390fd5b80600860003373ffffffffffffffffffffffffffffffffffffffff1673ffffffffffffffffffffffffffffffffffffffff1681526020019081526020016000206000828254610fe79190612418565b9250508190555060003373ffffffffffffffffffffffffffffffffffffffff1682604051611014906124ac565b60006040518083038185875af1925050503d8060008114611051576040519150601f19603f3d011682016040523d82523d6000602084013e611056565b606091505b5050905080611091576040517f9ab2255d00000000000000000000000000000000000000000000000000000000815260040160405180910390fd5b5050565b600a6020528060005260406000206000915054906101000a900460ff1681565b60001515600a60003373ffffffffffffffffffffffffffffffffffffffff1673ffffffffffffffffffffffffffffffffffffffff16815260200190815260200160002060009054906101000a900460ff1615151415611140576040517f4523e4c700000000000000000000000000000000000000000000000000000000815260040160405180910390fd5b60006040518060e001604052803373ffffffffffffffffffffffffffffffffffffffff1681526020018573ffffffffffffffffffffffffffffffffffffffff168152602001600015158152602001838152602001600254815260200184815260200160008152509050600581908060018154018082558091505060019003906000526020600020906006020160009091909190915060008201518160000160006101000a81548173ffffffffffffffffffffffffffffffffffffffff021916908373ffffffffffffffffffffffffffffffffffffffff16021790555060208201518160010160006101000a81548173ffffffffffffffffffffffffffffffffffffffff021916908373ffffffffffffffffffffffffffffffffffffffff16021790555060408201518160010160146101000a81548160ff021916908315150217905550606082015181600201908051906020019061129f929190611d8a565b506080820151816003015560a0820151816004015560c082015181600501555050600b60003373ffffffffffffffffffffffffffffffffffffffff1673ffffffffffffffffffffffffffffffffffffffff16815260200190815260200160002081908060018154018082558091505060019003906000526020600020906006020160009091909190915060008201518160000160006101000a81548173ffffffffffffffffffffffffffffffffffffffff021916908373ffffffffffffffffffffffffffffffffffffffff16021790555060208201518160010160006101000a81548173ffffffffffffffffffffffffffffffffffffffff021916908373ffffffffffffffffffffffffffffffffffffffff16021790555060408201518160010160146101000a81548160ff02191690831515021790555060608201518160020190805190602001906113f3929190611d8a565b506080820151816003015560a0820151816004015560c082015181600501555050826002543373ffffffffffffffffffffffffffffffffffffffff167f0f2910e6cd9547e97485dd075dd400d90548c91386d2008a2bf96f5d4ec4f76c8760405161145e9190612520565b60405180910390a460026000815480929190611479906123a6565b919050555050505050565b60096020528160005260406000206020528060005260406000206000915091509054906101000a900460ff1681565b60035481565b600c60205281600052604060002081815481106114d557600080fd5b9060005260206000209060030201600091509150508060000160009054906101000a900473ffffffffffffffffffffffffffffffffffffffff16908060010154908060020154905083565b60001515600a60003373ffffffffffffffffffffffffffffffffffffffff1673ffffffffffffffffffffffffffffffffffffffff16815260200190815260200160002060009054906101000a900460ff16151514156115ab576040517f4523e4c700000000000000000000000000000000000000000000000000000000815260040160405180910390fd5b8060058054905081106115f557806040517fcec0dec20000000000000000000000000000000000000000000000000000000081526004016115ec9190611e46565b60405180910390fd5b81600115156005828154811061160e5761160d61244c565b5b906000526020600020906006020160010160149054906101000a900460ff161515141561167257806040517f12c8b3fc0000000000000000000000000000000000000000000000000000000081526004016116699190611e46565b60405180910390fd5b60011515600960003373ffffffffffffffffffffffffffffffffffffffff1673ffffffffffffffffffffffffffffffffffffffff168152602001908152602001600020600085815260200190815260200160002060009054906101000a900460ff161515141561171957826040517fbc6b411f0000000000000000000000000000000000000000000000000000000081526004016117109190611e46565b60405180910390fd5b6001600960003373ffffffffffffffffffffffffffffffffffffffff1673ffffffffffffffffffffffffffffffffffffffff168152602001908152602001600020600085815260200190815260200160002060006101000a81548160ff0219169083151502179055506001600584815481106117985761179761244c565b5b906000526020600020906006020160050160008282546117b89190612350565b92505081905550505050565b600b60205281600052604060002081815481106117e057600080fd5b9060005260206000209060060201600091509150508060000160009054906101000a900473ffffffffffffffffffffffffffffffffffffffff16908060010160009054906101000a900473ffffffffffffffffffffffffffffffffffffffff16908060010160149054906101000a900460ff16908060020180546118639061256a565b80601f016020809104026020016040519081016040528092919081815260200182805461188f9061256a565b80156118dc5780601f106118b1576101008083540402835291602001916118dc565b820191906000526020600020905b8154815290600101906020018083116118bf57829003601f168201915b5050505050908060030154908060040154908060050154905087565b6005818154811061190857600080fd5b90600052602060002090600602016000915090508060000160009054906101000a900473ffffffffffffffffffffffffffffffffffffffff16908060010160009054906101000a900473ffffffffffffffffffffffffffffffffffffffff16908060010160149054906101000a900460ff169080600201805461198a9061256a565b80601f01602080910402602001604051908101604052809291908181526020018280546119b69061256a565b8015611a035780601f106119d857610100808354040283529160200191611a03565b820191906000526020600020905b8154815290600101906020018083116119e657829003601f168201915b5050505050908060030154908060040154908060050154905087565b60045481565b60001515600a60003373ffffffffffffffffffffffffffffffffffffffff1673ffffffffffffffffffffffffffffffffffffffff16815260200190815260200160002060009054906101000a900460ff1615151415611ab0576040517f4523e4c700000000000000000000000000000000000000000000000000000000815260040160405180910390fd5b806005805490508110611afa57806040517fcec0dec2000000000000000000000000000000000000000000000000000000008152600401611af19190611e46565b60405180910390fd5b816001151560058281548110611b1357611b1261244c565b5b906000526020600020906006020160010160149054906101000a900460ff1615151415611b7757806040517f12c8b3fc000000000000000000000000000000000000000000000000000000008152600401611b6e9190611e46565b60405180910390fd5b60015460058481548110611b8e57611b8d61244c565b5b9060005260206000209060060201600501541015611c0c5760058381548110611bba57611bb961244c565b5b9060005260206000209060060201600501546001546040517f124511ac000000000000000000000000000000000000000000000000000000008152600401611c039291906123ef565b60405180910390fd5b600060058481548110611c2257611c2161244c565b5b9060005260206000209060060201905060045481600401541115611c855760045481600401546040517f5cac08f1000000000000000000000000000000000000000000000000000000008152600401611c7c9291906123ef565b60405180910390fd5b60018160010160146101000a81548160ff02191690831515021790555060008160010160009054906101000a900473ffffffffffffffffffffffffffffffffffffffff1673ffffffffffffffffffffffffffffffffffffffff16826004015483600201604051611cf59190612630565b60006040518083038185875af1925050503d8060008114611d32576040519150601f19603f3d011682016040523d82523d6000602084013e611d37565b606091505b5050905080611d7d57846040517f4deb6589000000000000000000000000000000000000000000000000000000008152600401611d749190611e46565b60405180910390fd5b5050505050565b60015481565b828054611d969061256a565b90600052602060002090601f016020900481019282611db85760008555611dff565b82601f10611dd157805160ff1916838001178555611dff565b82800160010185558215611dff579182015b82811115611dfe578251825591602001919060010190611de3565b5b509050611e0c9190611e10565b5090565b5b80821115611e29576000816000905550600101611e11565b5090565b6000819050919050565b611e4081611e2d565b82525050565b6000602082019050611e5b6000830184611e37565b92915050565b6000604051905090565b600080fd5b600080fd5b611e7e81611e2d565b8114611e8957600080fd5b50565b600081359050611e9b81611e75565b92915050565b600060208284031215611eb757611eb6611e6b565b5b6000611ec584828501611e8c565b91505092915050565b600073ffffffffffffffffffffffffffffffffffffffff82169050919050565b6000611ef982611ece565b9050919050565b611f0981611eee565b82525050565b6000602082019050611f246000830184611f00565b92915050565b6000606082019050611f3f6000830186611f00565b611f4c6020830185611e37565b611f596040830184611e37565b949350505050565b611f6a81611eee565b8114611f7557600080fd5b50565b600081359050611f8781611f61565b92915050565b600060208284031215611fa357611fa2611e6b565b5b6000611fb184828501611f78565b91505092915050565b60008115159050919050565b611fcf81611fba565b82525050565b6000602082019050611fea6000830184611fc6565b92915050565b6000611ffb82611ece565b9050919050565b61200b81611ff0565b811461201657600080fd5b50565b60008135905061202881612002565b92915050565b600080fd5b600080fd5b6000601f19601f8301169050919050565b7f4e487b7100000000000000000000000000000000000000000000000000000000600052604160045260246000fd5b61208182612038565b810181811067ffffffffffffffff821117156120a05761209f612049565b5b80604052505050565b60006120b3611e61565b90506120bf8282612078565b919050565b600067ffffffffffffffff8211156120df576120de612049565b5b6120e882612038565b9050602081019050919050565b82818337600083830152505050565b6000612117612112846120c4565b6120a9565b90508281526020810184848401111561213357612132612033565b5b61213e8482856120f5565b509392505050565b600082601f83011261215b5761215a61202e565b5b813561216b848260208601612104565b91505092915050565b60008060006060848603121561218d5761218c611e6b565b5b600061219b86828701612019565b93505060206121ac86828701611e8c565b925050604084013567ffffffffffffffff8111156121cd576121cc611e70565b5b6121d986828701612146565b9150509250925092565b600080604083850312156121fa576121f9611e6b565b5b600061220885828601611f78565b925050602061221985828601611e8c565b9150509250929050565b600081519050919050565b600082825260208201905092915050565b60005b8381101561225d578082015181840152602081019050612242565b8381111561226c576000848401525b50505050565b600061227d82612223565b612287818561222e565b935061229781856020860161223f565b6122a081612038565b840191505092915050565b600060e0820190506122c0600083018a611f00565b6122cd6020830189611f00565b6122da6040830188611fc6565b81810360608301526122ec8187612272565b90506122fb6080830186611e37565b61230860a0830185611e37565b61231560c0830184611e37565b98975050505050505050565b7f4e487b7100000000000000000000000000000000000000000000000000000000600052601160045260246000fd5b600061235b82611e2d565b915061236683611e2d565b9250827fffffffffffffffffffffffffffffffffffffffffffffffffffffffffffffffff0382111561239b5761239a612321565b5b828201905092915050565b60006123b182611e2d565b91507fffffffffffffffffffffffffffffffffffffffffffffffffffffffffffffffff8214156123e4576123e3612321565b5b600182019050919050565b60006040820190506124046000830185611e37565b6124116020830184611e37565b9392505050565b600061242382611e2d565b915061242e83611e2d565b92508282101561244157612440612321565b5b828203905092915050565b7f4e487b7100000000000000000000000000000000000000000000000000000000600052603260045260246000fd5b600081905092915050565b50565b600061249660008361247b565b91506124a182612486565b600082019050919050565b60006124b782612489565b9150819050919050565b6000819050919050565b60006124e66124e16124dc84611ece565b6124c1565b611ece565b9050919050565b60006124f8826124cb565b9050919050565b600061250a826124ed565b9050919050565b61251a816124ff565b82525050565b60006020820190506125356000830184612511565b92915050565b7f4e487b7100000000000000000000000000000000000000000000000000000000600052602260045260246000fd5b6000600282049050600182168061258257607f821691505b602082108114156125965761259561253b565b5b50919050565b60008190508160005260206000209050919050565b600081546125be8161256a565b6125c8818661247b565b945060018216600081146125e357600181146125f457612627565b60ff19831686528186019350612627565b6125fd8561259c565b60005b8381101561261f57815481890152600182019150602081019050612600565b838801955050505b50505092915050565b600061263c82846125b1565b91508190509291505056fea2646970667358221220732984266c553df9db571d885f0195512703b37878565b9f44a3a2c26790b35564736f6c63430008090033",
  "devdoc": {
    "kind": "dev",
    "methods": {},
    "version": 1
  },
  "userdoc": {
    "kind": "user",
    "methods": {},
    "version": 1
  },
  "storageLayout": {
    "storage": [
      {
        "astId": 98,
        "contract": "contracts/MultiSig.sol:MultiSig",
        "label": "owners",
        "offset": 0,
        "slot": "0",
        "type": "t_array(t_address)dyn_storage"
      },
      {
        "astId": 100,
        "contract": "contracts/MultiSig.sol:MultiSig",
        "label": "s_confirmationsRequired",
        "offset": 0,
        "slot": "1",
        "type": "t_uint256"
      },
      {
        "astId": 102,
        "contract": "contracts/MultiSig.sol:MultiSig",
        "label": "s_transactionCounter",
        "offset": 0,
        "slot": "2",
        "type": "t_uint256"
      },
      {
        "astId": 104,
        "contract": "contracts/MultiSig.sol:MultiSig",
        "label": "s_depositCounter",
        "offset": 0,
        "slot": "3",
        "type": "t_uint256"
      },
      {
        "astId": 106,
        "contract": "contracts/MultiSig.sol:MultiSig",
        "label": "s_sharedFunds",
        "offset": 0,
        "slot": "4",
        "type": "t_uint256"
      },
      {
        "astId": 110,
        "contract": "contracts/MultiSig.sol:MultiSig",
        "label": "transactionArray",
        "offset": 0,
        "slot": "5",
        "type": "t_array(t_struct(Transaction)88_storage)dyn_storage"
      },
      {
        "astId": 114,
        "contract": "contracts/MultiSig.sol:MultiSig",
        "label": "depositArray",
        "offset": 0,
        "slot": "6",
        "type": "t_array(t_struct(Deposit)95_storage)dyn_storage"
      },
      {
        "astId": 118,
        "contract": "contracts/MultiSig.sol:MultiSig",
        "label": "nonOwnerDepositArray",
        "offset": 0,
        "slot": "7",
        "type": "t_array(t_struct(Deposit)95_storage)dyn_storage"
      },
      {
        "astId": 122,
        "contract": "contracts/MultiSig.sol:MultiSig",
        "label": "balances",
        "offset": 0,
        "slot": "8",
        "type": "t_mapping(t_address,t_uint256)"
      },
      {
        "astId": 128,
        "contract": "contracts/MultiSig.sol:MultiSig",
        "label": "hasConfirmed",
        "offset": 0,
        "slot": "9",
        "type": "t_mapping(t_address,t_mapping(t_uint256,t_bool))"
      },
      {
        "astId": 132,
        "contract": "contracts/MultiSig.sol:MultiSig",
        "label": "isOwner",
        "offset": 0,
        "slot": "10",
        "type": "t_mapping(t_address,t_bool)"
      },
      {
        "astId": 138,
        "contract": "contracts/MultiSig.sol:MultiSig",
        "label": "addressToTxArray",
        "offset": 0,
        "slot": "11",
        "type": "t_mapping(t_address,t_array(t_struct(Transaction)88_storage)dyn_storage)"
      },
      {
        "astId": 144,
        "contract": "contracts/MultiSig.sol:MultiSig",
        "label": "addressToDepositArray",
        "offset": 0,
        "slot": "12",
        "type": "t_mapping(t_address,t_array(t_struct(Deposit)95_storage)dyn_storage)"
      }
    ],
    "types": {
      "t_address": {
        "encoding": "inplace",
        "label": "address",
        "numberOfBytes": "20"
      },
      "t_array(t_address)dyn_storage": {
        "base": "t_address",
        "encoding": "dynamic_array",
        "label": "address[]",
        "numberOfBytes": "32"
      },
      "t_array(t_struct(Deposit)95_storage)dyn_storage": {
        "base": "t_struct(Deposit)95_storage",
        "encoding": "dynamic_array",
        "label": "struct MultiSig.Deposit[]",
        "numberOfBytes": "32"
      },
      "t_array(t_struct(Transaction)88_storage)dyn_storage": {
        "base": "t_struct(Transaction)88_storage",
        "encoding": "dynamic_array",
        "label": "struct MultiSig.Transaction[]",
        "numberOfBytes": "32"
      },
      "t_bool": {
        "encoding": "inplace",
        "label": "bool",
        "numberOfBytes": "1"
      },
      "t_bytes_storage": {
        "encoding": "bytes",
        "label": "bytes",
        "numberOfBytes": "32"
      },
      "t_mapping(t_address,t_array(t_struct(Deposit)95_storage)dyn_storage)": {
        "encoding": "mapping",
        "key": "t_address",
        "label": "mapping(address => struct MultiSig.Deposit[])",
        "numberOfBytes": "32",
        "value": "t_array(t_struct(Deposit)95_storage)dyn_storage"
      },
      "t_mapping(t_address,t_array(t_struct(Transaction)88_storage)dyn_storage)": {
        "encoding": "mapping",
        "key": "t_address",
        "label": "mapping(address => struct MultiSig.Transaction[])",
        "numberOfBytes": "32",
        "value": "t_array(t_struct(Transaction)88_storage)dyn_storage"
      },
      "t_mapping(t_address,t_bool)": {
        "encoding": "mapping",
        "key": "t_address",
        "label": "mapping(address => bool)",
        "numberOfBytes": "32",
        "value": "t_bool"
      },
      "t_mapping(t_address,t_mapping(t_uint256,t_bool))": {
        "encoding": "mapping",
        "key": "t_address",
        "label": "mapping(address => mapping(uint256 => bool))",
        "numberOfBytes": "32",
        "value": "t_mapping(t_uint256,t_bool)"
      },
      "t_mapping(t_address,t_uint256)": {
        "encoding": "mapping",
        "key": "t_address",
        "label": "mapping(address => uint256)",
        "numberOfBytes": "32",
        "value": "t_uint256"
      },
      "t_mapping(t_uint256,t_bool)": {
        "encoding": "mapping",
        "key": "t_uint256",
        "label": "mapping(uint256 => bool)",
        "numberOfBytes": "32",
        "value": "t_bool"
      },
      "t_struct(Deposit)95_storage": {
        "encoding": "inplace",
        "label": "struct MultiSig.Deposit",
        "members": [
          {
            "astId": 90,
            "contract": "contracts/MultiSig.sol:MultiSig",
            "label": "depositor",
            "offset": 0,
            "slot": "0",
            "type": "t_address"
          },
          {
            "astId": 92,
            "contract": "contracts/MultiSig.sol:MultiSig",
            "label": "depositId",
            "offset": 0,
            "slot": "1",
            "type": "t_uint256"
          },
          {
            "astId": 94,
            "contract": "contracts/MultiSig.sol:MultiSig",
            "label": "value",
            "offset": 0,
            "slot": "2",
            "type": "t_uint256"
          }
        ],
        "numberOfBytes": "96"
      },
      "t_struct(Transaction)88_storage": {
        "encoding": "inplace",
        "label": "struct MultiSig.Transaction",
        "members": [
          {
            "astId": 75,
            "contract": "contracts/MultiSig.sol:MultiSig",
            "label": "proposer",
            "offset": 0,
            "slot": "0",
            "type": "t_address"
          },
          {
            "astId": 77,
            "contract": "contracts/MultiSig.sol:MultiSig",
            "label": "to",
            "offset": 0,
            "slot": "1",
            "type": "t_address"
          },
          {
            "astId": 79,
            "contract": "contracts/MultiSig.sol:MultiSig",
            "label": "executed",
            "offset": 20,
            "slot": "1",
            "type": "t_bool"
          },
          {
            "astId": 81,
            "contract": "contracts/MultiSig.sol:MultiSig",
            "label": "data",
            "offset": 0,
            "slot": "2",
            "type": "t_bytes_storage"
          },
          {
            "astId": 83,
            "contract": "contracts/MultiSig.sol:MultiSig",
            "label": "transactionId",
            "offset": 0,
            "slot": "3",
            "type": "t_uint256"
          },
          {
            "astId": 85,
            "contract": "contracts/MultiSig.sol:MultiSig",
            "label": "value",
            "offset": 0,
            "slot": "4",
            "type": "t_uint256"
          },
          {
            "astId": 87,
            "contract": "contracts/MultiSig.sol:MultiSig",
            "label": "confirmations",
            "offset": 0,
            "slot": "5",
            "type": "t_uint256"
          }
        ],
        "numberOfBytes": "192"
      },
      "t_uint256": {
        "encoding": "inplace",
        "label": "uint256",
        "numberOfBytes": "32"
      }
    }
  }
}